{
  "_format": "hh-sol-artifact-1",
  "contractName": "Governance",
  "sourceName": "contracts/Governance.sol",
  "abi": [
    {
      "inputs": [],
      "stateMutability": "nonpayable",
      "type": "constructor"
    },
    {
      "inputs": [
        {
          "internalType": "uint256",
          "name": "_minVotes",
          "type": "uint256"
        },
        {
          "internalType": "uint256",
          "name": "_quorum",
          "type": "uint256"
        },
        {
          "internalType": "uint256",
          "name": "_notResolvedBoundryPercentage",
          "type": "uint256"
        },
        {
          "internalType": "uint256",
          "name": "_acceptedBoundryPercentage",
          "type": "uint256"
        },
        {
          "internalType": "uint256",
          "name": "_startDate",
          "type": "uint256"
        },
        {
          "internalType": "uint256",
          "name": "_endDate",
          "type": "uint256"
        }
      ],
      "name": "addProposal",
      "outputs": [],
      "stateMutability": "nonpayable",
      "type": "function"
    },
    {
      "inputs": [],
      "name": "admin",
      "outputs": [
        {
          "internalType": "address",
          "name": "",
          "type": "address"
        }
      ],
      "stateMutability": "view",
      "type": "function"
    },
    {
      "inputs": [],
      "name": "numberOfVotes",
      "outputs": [
        {
          "internalType": "uint256",
          "name": "",
          "type": "uint256"
        }
      ],
      "stateMutability": "view",
      "type": "function"
    },
    {
      "inputs": [],
      "name": "proposal",
      "outputs": [
        {
          "internalType": "uint256",
          "name": "minVotes",
          "type": "uint256"
        },
        {
          "internalType": "uint256",
          "name": "quorum",
          "type": "uint256"
        },
        {
          "internalType": "uint256",
          "name": "notResolvedBoundryPercentage",
          "type": "uint256"
        },
        {
          "internalType": "uint256",
          "name": "acceptedBoundryPercentage",
          "type": "uint256"
        },
        {
          "internalType": "uint256",
          "name": "startDate",
          "type": "uint256"
        },
        {
          "internalType": "uint256",
          "name": "endDate",
          "type": "uint256"
        }
      ],
      "stateMutability": "view",
      "type": "function"
    },
    {
      "inputs": [
        {
          "internalType": "uint256",
          "name": "_acceptedBoundryPercentage",
          "type": "uint256"
        }
      ],
      "name": "setAcceptedBoundryPercentage",
      "outputs": [],
      "stateMutability": "nonpayable",
      "type": "function"
    },
    {
      "inputs": [
        {
          "internalType": "uint256",
          "name": "_newEndDate",
          "type": "uint256"
        }
      ],
      "name": "setEndDate",
      "outputs": [],
      "stateMutability": "nonpayable",
      "type": "function"
    },
    {
      "inputs": [
        {
          "internalType": "uint256",
          "name": "_newMinVotes",
          "type": "uint256"
        }
      ],
      "name": "setMinVotes",
      "outputs": [],
      "stateMutability": "nonpayable",
      "type": "function"
    },
    {
      "inputs": [
        {
          "internalType": "uint256",
          "name": "_notResolvedBoundryPercentage",
          "type": "uint256"
        }
      ],
      "name": "setNotResolvedBoundry",
      "outputs": [],
      "stateMutability": "nonpayable",
      "type": "function"
    },
    {
      "inputs": [
        {
          "internalType": "uint256",
          "name": "_newQuorum",
          "type": "uint256"
        }
      ],
      "name": "setQuorum",
      "outputs": [],
      "stateMutability": "nonpayable",
      "type": "function"
    },
    {
      "inputs": [
        {
          "internalType": "uint256",
          "name": "_newStartDate",
          "type": "uint256"
        }
      ],
      "name": "setStartDate",
      "outputs": [],
      "stateMutability": "nonpayable",
      "type": "function"
    },
    {
      "inputs": [
        {
          "internalType": "enum Governance.VoteType",
          "name": "_vote",
          "type": "uint8"
        }
      ],
      "name": "vote",
      "outputs": [],
      "stateMutability": "nonpayable",
      "type": "function"
    },
    {
      "inputs": [
        {
          "internalType": "address",
          "name": "",
          "type": "address"
        }
      ],
      "name": "voters",
      "outputs": [
        {
          "internalType": "uint256",
          "name": "tokens",
          "type": "uint256"
        },
        {
          "internalType": "bool",
          "name": "voted",
          "type": "bool"
        }
      ],
      "stateMutability": "view",
      "type": "function"
    },
    {
      "inputs": [
        {
          "internalType": "enum Governance.VoteType",
          "name": "",
          "type": "uint8"
        }
      ],
      "name": "votes",
      "outputs": [
        {
          "internalType": "uint256",
          "name": "",
          "type": "uint256"
        }
      ],
      "stateMutability": "view",
      "type": "function"
    },
    {
      "inputs": [],
      "name": "winningOption",
      "outputs": [
        {
          "internalType": "enum Governance.VoteType",
          "name": "_result",
          "type": "uint8"
        }
      ],
      "stateMutability": "view",
      "type": "function"
    }
  ],
  "bytecode": "0x608060405234801561001057600080fd5b5033600760006101000a81548173ffffffffffffffffffffffffffffffffffffffff021916908373ffffffffffffffffffffffffffffffffffffffff1602179055506115ce806100616000396000f3fe608060405234801561001057600080fd5b50600436106100ea5760003560e01c806382d95df51161008c578063b3f98adc11610066578063b3f98adc14610227578063c1b4335714610243578063c1ba4e5914610273578063f851a4401461028f576100ea565b806382d95df5146101bc5780639fde4ef8146101d8578063a3ec138d146101f6576100ea565b806364f19d18116100c857806364f19d1814610145578063753ec103146101615780637b8b2ed1146101845780637e5f9260146101a0576100ea565b80630e7d490d146100ef5780633784f0001461010d578063612d66ed14610129575b600080fd5b6100f76102ad565b604051610104919061123a565b60405180910390f35b61012760048036038101906101229190610f84565b6102b3565b005b610143600480360381019061013e9190610fad565b610397565b005b61015f600480360381019061015a9190610f84565b61049c565b005b610169610580565b60405161017b9695949392919061127e565b60405180910390f35b61019e60048036038101906101999190610f84565b6105aa565b005b6101ba60048036038101906101b59190610f84565b61068e565b005b6101d660048036038101906101d19190610f84565b6107b4565b005b6101e0610898565b6040516101ed919061115f565b60405180910390f35b610210600480360381019061020b9190610f32565b610be2565b60405161021e929190611255565b60405180910390f35b610241600480360381019061023c9190610f5b565b610c13565b005b61025d60048036038101906102589190610f5b565b610dd1565b60405161026a919061123a565b60405180910390f35b61028d60048036038101906102889190610f84565b610de9565b005b610297610ecd565b6040516102a49190611144565b60405180910390f35b60095481565b600760009054906101000a900473ffffffffffffffffffffffffffffffffffffffff1673ffffffffffffffffffffffffffffffffffffffff163373ffffffffffffffffffffffffffffffffffffffff1614610343576040517f08c379a000000000000000000000000000000000000000000000000000000000815260040161033a9061117a565b60405180910390fd5b600060050154421061038a576040517f08c379a00000000000000000000000000000000000000000000000000000000081526004016103819061119a565b60405180910390fd5b8060006005018190555050565b600760009054906101000a900473ffffffffffffffffffffffffffffffffffffffff1673ffffffffffffffffffffffffffffffffffffffff163373ffffffffffffffffffffffffffffffffffffffff1614610427576040517f08c379a000000000000000000000000000000000000000000000000000000000815260040161041e9061117a565b60405180910390fd5b6040518060c001604052808781526020018681526020018581526020018481526020018381526020018281525060008082015181600001556020820151816001015560408201518160020155606082015181600301556080820151816004015560a08201518160050155905050505050505050565b600760009054906101000a900473ffffffffffffffffffffffffffffffffffffffff1673ffffffffffffffffffffffffffffffffffffffff163373ffffffffffffffffffffffffffffffffffffffff161461052c576040517f08c379a00000000000000000000000000000000000000000000000000000000081526004016105239061117a565b60405180910390fd5b6000600501544210610573576040517f08c379a000000000000000000000000000000000000000000000000000000000815260040161056a9061119a565b60405180910390fd5b8060006003018190555050565b60008060000154908060010154908060020154908060030154908060040154908060050154905086565b600760009054906101000a900473ffffffffffffffffffffffffffffffffffffffff1673ffffffffffffffffffffffffffffffffffffffff163373ffffffffffffffffffffffffffffffffffffffff161461063a576040517f08c379a00000000000000000000000000000000000000000000000000000000081526004016106319061117a565b60405180910390fd5b6000600501544210610681576040517f08c379a00000000000000000000000000000000000000000000000000000000081526004016106789061119a565b60405180910390fd5b8060006002018190555050565b600760009054906101000a900473ffffffffffffffffffffffffffffffffffffffff1673ffffffffffffffffffffffffffffffffffffffff163373ffffffffffffffffffffffffffffffffffffffff161461071e576040517f08c379a00000000000000000000000000000000000000000000000000000000081526004016107159061117a565b60405180910390fd5b6000600501544210610765576040517f08c379a000000000000000000000000000000000000000000000000000000000815260040161075c9061119a565b60405180910390fd5b600081116107a8576040517f08c379a000000000000000000000000000000000000000000000000000000000815260040161079f906111fa565b60405180910390fd5b80600080018190555050565b600760009054906101000a900473ffffffffffffffffffffffffffffffffffffffff1673ffffffffffffffffffffffffffffffffffffffff163373ffffffffffffffffffffffffffffffffffffffff1614610844576040517f08c379a000000000000000000000000000000000000000000000000000000000815260040161083b9061117a565b60405180910390fd5b600060040154421161088b576040517f08c379a00000000000000000000000000000000000000000000000000000000081526004016108829061121a565b60405180910390fd5b8060006004018190555050565b6000600860006002808111156108d7577f4e487b7100000000000000000000000000000000000000000000000000000000600052602160045260246000fd5b600281111561090f577f4e487b7100000000000000000000000000000000000000000000000000000000600052602160045260246000fd5b8152602001908152602001600020546008600080600281111561095b577f4e487b7100000000000000000000000000000000000000000000000000000000600052602160045260246000fd5b6002811115610993577f4e487b7100000000000000000000000000000000000000000000000000000000600052602160045260246000fd5b81526020019081526020016000205411610ac45760086000600160028111156109e5577f4e487b7100000000000000000000000000000000000000000000000000000000600052602160045260246000fd5b6002811115610a1d577f4e487b7100000000000000000000000000000000000000000000000000000000600052602160045260246000fd5b81526020019081526020016000205460086000600280811115610a69577f4e487b7100000000000000000000000000000000000000000000000000000000600052602160045260246000fd5b6002811115610aa1577f4e487b7100000000000000000000000000000000000000000000000000000000600052602160045260246000fd5b81526020019081526020016000205411610abc576001610abf565b60025b610bdd565b6008600060016002811115610b02577f4e487b7100000000000000000000000000000000000000000000000000000000600052602160045260246000fd5b6002811115610b3a577f4e487b7100000000000000000000000000000000000000000000000000000000600052602160045260246000fd5b81526020019081526020016000205460086000806002811115610b86577f4e487b7100000000000000000000000000000000000000000000000000000000600052602160045260246000fd5b6002811115610bbe577f4e487b7100000000000000000000000000000000000000000000000000000000600052602160045260246000fd5b81526020019081526020016000205411610bd9576001610bdc565b60005b5b905090565b60066020528060005260406000206000915090508060000154908060010160009054906101000a900460ff16905082565b6000600660003373ffffffffffffffffffffffffffffffffffffffff1673ffffffffffffffffffffffffffffffffffffffff16815260200190815260200160002090508060010160009054906101000a900460ff1615610ca8576040517f08c379a0000000000000000000000000000000000000000000000000000000008152600401610c9f906111da565b60405180910390fd5b60006004015442118015610cc0575060006005015442105b610cff576040517f08c379a0000000000000000000000000000000000000000000000000000000008152600401610cf6906111ba565b60405180910390fd5b60018160010160006101000a81548160ff02191690831515021790555060086000836002811115610d59577f4e487b7100000000000000000000000000000000000000000000000000000000600052602160045260246000fd5b6002811115610d91577f4e487b7100000000000000000000000000000000000000000000000000000000600052602160045260246000fd5b81526020019081526020016000206000815480929190610db09061135d565b919050555060096000815480929190610dc89061135d565b91905055505050565b60086020528060005260406000206000915090505481565b600760009054906101000a900473ffffffffffffffffffffffffffffffffffffffff1673ffffffffffffffffffffffffffffffffffffffff163373ffffffffffffffffffffffffffffffffffffffff1614610e79576040517f08c379a0000000000000000000000000000000000000000000000000000000008152600401610e709061117a565b60405180910390fd5b6000600501544210610ec0576040517f08c379a0000000000000000000000000000000000000000000000000000000008152600401610eb79061119a565b60405180910390fd5b8060006001018190555050565b600760009054906101000a900473ffffffffffffffffffffffffffffffffffffffff1681565b600081359050610f028161155a565b92915050565b600081359050610f1781611571565b92915050565b600081359050610f2c81611581565b92915050565b600060208284031215610f4457600080fd5b6000610f5284828501610ef3565b91505092915050565b600060208284031215610f6d57600080fd5b6000610f7b84828501610f08565b91505092915050565b600060208284031215610f9657600080fd5b6000610fa484828501610f1d565b91505092915050565b60008060008060008060c08789031215610fc657600080fd5b6000610fd489828a01610f1d565b9650506020610fe589828a01610f1d565b9550506040610ff689828a01610f1d565b945050606061100789828a01610f1d565b935050608061101889828a01610f1d565b92505060a061102989828a01610f1d565b9150509295509295509295565b61103f816112f0565b82525050565b61104e81611302565b82525050565b61105d8161134b565b82525050565b60006110706021836112df565b915061107b82611404565b604082019050919050565b60006110936016836112df565b915061109e82611453565b602082019050919050565b60006110b66013836112df565b91506110c18261147c565b602082019050919050565b60006110d9600d836112df565b91506110e4826114a5565b602082019050919050565b60006110fc6027836112df565b9150611107826114ce565b604082019050919050565b600061111f6018836112df565b915061112a8261151d565b602082019050919050565b61113e81611341565b82525050565b60006020820190506111596000830184611036565b92915050565b60006020820190506111746000830184611054565b92915050565b6000602082019050818103600083015261119381611063565b9050919050565b600060208201905081810360008301526111b381611086565b9050919050565b600060208201905081810360008301526111d3816110a9565b9050919050565b600060208201905081810360008301526111f3816110cc565b9050919050565b60006020820190508181036000830152611213816110ef565b9050919050565b6000602082019050818103600083015261123381611112565b9050919050565b600060208201905061124f6000830184611135565b92915050565b600060408201905061126a6000830185611135565b6112776020830184611045565b9392505050565b600060c0820190506112936000830189611135565b6112a06020830188611135565b6112ad6040830187611135565b6112ba6060830186611135565b6112c76080830185611135565b6112d460a0830184611135565b979650505050505050565b600082825260208201905092915050565b60006112fb82611321565b9050919050565b60008115159050919050565b600081905061131c82611546565b919050565b600073ffffffffffffffffffffffffffffffffffffffff82169050919050565b6000819050919050565b60006113568261130e565b9050919050565b600061136882611341565b91507fffffffffffffffffffffffffffffffffffffffffffffffffffffffffffffffff82141561139b5761139a6113a6565b5b600182019050919050565b7f4e487b7100000000000000000000000000000000000000000000000000000000600052601160045260246000fd5b7f4e487b7100000000000000000000000000000000000000000000000000000000600052602160045260246000fd5b7f4f6e6c79206f776e65722063616e2063616c6c20746869732066756e6374696f60008201527f6e00000000000000000000000000000000000000000000000000000000000000602082015250565b7f50726f706f73616c20616c726561647920656e64656400000000000000000000600082015250565b7f50726f706f73616c206e6f742061637469766500000000000000000000000000600082015250565b7f416c726561647920766f74656400000000000000000000000000000000000000600082015250565b7f4d696e696d756d20766f746573206d757374206265206772656174657220746860008201527f616e207a65726f00000000000000000000000000000000000000000000000000602082015250565b7f50726f706f73616c20616c726561647920737461727465640000000000000000600082015250565b60038110611557576115566113d5565b5b50565b611563816112f0565b811461156e57600080fd5b50565b6003811061157e57600080fd5b50565b61158a81611341565b811461159557600080fd5b5056fea2646970667358221220f733a88e9bd47a0a8b527626cf184afbce0d23567394d2b9b8113f2c38a59ca564736f6c63430008040033",
  "linkReferences": {},
  "deployedLinkReferences": {}
}